:020000040000FA
:0400000000003328A1
:040004000034003490
:08000800052800003008013C4E
:1000100003190F203008023C031930200900831215
:100020000313F4102530840000089721F4142108EC
:10003000203C03192C21A10A21085B3C031926212D
:100040002130840000089721F41010309721F41417
:100050008B10FA30A3000330A200FA30A40008008D
:1000600000003320080083120313FA30A30003308A
:10007000A200FA30A400C030A5000030A600013074
:10008000A7000130B0008312031306148316031374
:100090008801831203138801A7214E28F7208316B5
:1000A00003138801061401178B100B168B1783128C
:1000B0000313F410C0309721F414142160205E283B
:1000C000000083120313A30B080067200800000040
:1000D00083120313FA30A300A40B08007020080059
:1000E000000083120313FA30A400A20B08002708B3
:1000F000013C0319A6202708023C0319AC2027085D
:10010000033C0319B2202708043C0319B820270830
:10011000053C0319BE20A70A21308400000897215E
:100120002C21A10AA50AFA30A3000330A200FA305C
:10013000A4002508C53C0319C4202608013C031966
:10014000C9202108203C0319D12008000000831297
:1001500003132108F1000800000083120313210893
:10016000F20008000000831203132108F3000800C6
:100170000000831203132108A80008000000831266
:1001800003132108A9000800000083120313D720DD
:1001900008000000831203132108203C0319C42027
:1001A00008000000831203130130A60008000000BD
:1001B00083120313F4100130972180309721F41437
:1001C0000230B0004C210230B0008221F4108030A7
:1001D00097211C309721F414E228EF280800EF281B
:1001E000000000089721840A041DF0280800F4107C
:1001F00080309721F414453097216E309721743068
:100200009721653097217230972120309721533004
:1002100097217430972172309721693097216E3081
:100220009721673097210800F410C03097210F30D4
:100230009721F414A1014130A1002130840000086D
:100240009721F41010309721F41408000000831255
:1002500003132030A1000800000083120313403074
:10026000A10008000000F4101C309721F4140800CD
:100270000000FF30A80008000000A80B3C2908007F
:10028000F41001309721F4140800840000088F3C1A
:1002900003194B21080008007130840000089721E1
:1002A0007230840000089721733084000008972181
:1002B0002830840000089721293084000008972105
:1002C000080038213C2138213C2138213C213821AB
:1002D0003C2138213C2138213C2138213C21382146
:1002E0003C2138213C2138213C2138213C21382136
:1002F0003C2138213C2138213C2138213C21382126
:100300003C21080061216121612161210800F9304F
:10031000F0000000F00B89290800F1008721F10BA3
:100320008E29080008158721081187210800F5008B
:10033000F0398800F418881492218721F50E750889
:10034000F0398800F418881492218721080064305D
:100350008D21F030F40030308800922105308D215D
:10036000922187219221081292212830972108306A
:1003700097210130972106309721803097210C304A
:0403800097210800B9
:02400E00313748
:00000001FF
